{
  "_format": "hh-sol-artifact-1",
  "contractName": "SubscriptionFactory",
  "sourceName": "contracts/presets/LSP8Mintable.sol",
  "abi": [
    {
      "anonymous": false,
      "inputs": [
        {
          "indexed": true,
          "internalType": "address",
          "name": "contractAddress",
          "type": "address"
        },
        {
          "indexed": true,
          "internalType": "address",
          "name": "owner",
          "type": "address"
        },
        {
          "indexed": false,
          "internalType": "string",
          "name": "name",
          "type": "string"
        }
      ],
      "name": "SubscriptionCreated",
      "type": "event"
    },
    {
      "inputs": [
        {
          "internalType": "string",
          "name": "name",
          "type": "string"
        },
        {
          "internalType": "address",
          "name": "recipient",
          "type": "address"
        },
        {
          "internalType": "address",
          "name": "stablecoin",
          "type": "address"
        }
      ],
      "name": "createSubscription",
      "outputs": [
        {
          "internalType": "address",
          "name": "",
          "type": "address"
        }
      ],
      "stateMutability": "nonpayable",
      "type": "function"
    },
    {
      "inputs": [
        {
          "internalType": "address",
          "name": "",
          "type": "address"
        },
        {
          "internalType": "uint256",
          "name": "",
          "type": "uint256"
        }
      ],
      "name": "creatorSubscriptions",
      "outputs": [
        {
          "internalType": "address",
          "name": "",
          "type": "address"
        }
      ],
      "stateMutability": "view",
      "type": "function"
    },
    {
      "inputs": [
        {
          "internalType": "address",
          "name": "creator",
          "type": "address"
        }
      ],
      "name": "getCreatorSubscriptions",
      "outputs": [
        {
          "internalType": "address[]",
          "name": "",
          "type": "address[]"
        }
      ],
      "stateMutability": "view",
      "type": "function"
    },
    {
      "inputs": [
        {
          "internalType": "address",
          "name": "subscriptionAddress",
          "type": "address"
        },
        {
          "internalType": "address",
          "name": "creator",
          "type": "address"
        }
      ],
      "name": "isCreatorOfSubscription",
      "outputs": [
        {
          "internalType": "bool",
          "name": "",
          "type": "bool"
        }
      ],
      "stateMutability": "view",
      "type": "function"
    },
    {
      "inputs": [
        {
          "internalType": "address",
          "name": "",
          "type": "address"
        }
      ],
      "name": "isSubscriptionContract",
      "outputs": [
        {
          "internalType": "bool",
          "name": "",
          "type": "bool"
        }
      ],
      "stateMutability": "view",
      "type": "function"
    },
    {
      "inputs": [
        {
          "internalType": "address",
          "name": "",
          "type": "address"
        }
      ],
      "name": "subscriptionCreator",
      "outputs": [
        {
          "internalType": "address",
          "name": "",
          "type": "address"
        }
      ],
      "stateMutability": "view",
      "type": "function"
    },
    {
      "inputs": [],
      "name": "withdrawProtocolFees",
      "outputs": [],
      "stateMutability": "nonpayable",
      "type": "function"
    }
  ],
  "bytecode": "0x608060405234801561001057600080fd5b50615288806100206000396000f3fe60806040523480156200001157600080fd5b5060043610620000875760003560e01c8063df91a8bc1162000062578063df91a8bc1462000110578063e1bdc4521462000150578063eeeb6c2d1462000189578063f080bfa214620001a057600080fd5b8063718c1b55146200008c5780638795cccb14620000cd5780638f4eae8714620000d9575b600080fd5b620000a36200009d366004620004f2565b620001c6565b60405173ffffffffffffffffffffffffffffffffffffffff90911681526020015b60405180910390f35b620000d7620002f9565b005b620000ff620000ea366004620005f0565b60016020526000908152604090205460ff1681565b6040519015158152602001620000c4565b620000ff6200012136600462000615565b73ffffffffffffffffffffffffffffffffffffffff918216600090815260026020526040902054821691161490565b620000a362000161366004620005f0565b60026020526000908152604090205473ffffffffffffffffffffffffffffffffffffffff1681565b620000a36200019a3660046200064d565b620003b5565b620001b7620001b1366004620005f0565b620003fb565b604051620000c491906200067a565b6000803385853086604051620001dc906200048b565b620001ec9594939291906200073c565b604051809103906000f08015801562000209573d6000803e3d6000fd5b503360008181526020818152604080832080546001818101835591855283852001805473ffffffffffffffffffffffffffffffffffffffff88167fffffffffffffffffffffffff0000000000000000000000000000000000000000918216811790925581865282855283862080547fffffffffffffffffffffffffffffffffffffffffffffffffffffffffffffff001690931790925560029093529281902080549093168417909255905192935083927f2e05dc6586d2214fb2f826dbbfc7e5c3e3bab864c52ca3a40f1297ce188d018890620002e8908a906200078d565b60405180910390a395945050505050565b604051600090339047908381818185875af1925050503d80600081146200033d576040519150601f19603f3d011682016040523d82523d6000602084013e62000342565b606091505b5050905080620003b2576040517f08c379a000000000000000000000000000000000000000000000000000000000815260206004820152601160248201527f5769746864726177616c206661696c6564000000000000000000000000000000604482015260640160405180910390fd5b50565b60006020528160005260406000208181548110620003d257600080fd5b60009182526020909120015473ffffffffffffffffffffffffffffffffffffffff169150829050565b73ffffffffffffffffffffffffffffffffffffffff8116600090815260208181526040918290208054835181840281018401909452808452606093928301828280156200047f57602002820191906000526020600020905b815473ffffffffffffffffffffffffffffffffffffffff16815260019091019060200180831162000453575b50505050509050919050565b614ab080620007a383390190565b7f4e487b7100000000000000000000000000000000000000000000000000000000600052604160045260246000fd5b803573ffffffffffffffffffffffffffffffffffffffff81168114620004ed57600080fd5b919050565b6000806000606084860312156200050857600080fd5b833567ffffffffffffffff808211156200052157600080fd5b818601915086601f8301126200053657600080fd5b8135818111156200054b576200054b62000499565b604051601f82017fffffffffffffffffffffffffffffffffffffffffffffffffffffffffffffffe0908116603f0116810190838211818310171562000594576200059462000499565b81604052828152896020848701011115620005ae57600080fd5b826020860160208301376000602084830101528097505050505050620005d760208501620004c8565b9150620005e760408501620004c8565b90509250925092565b6000602082840312156200060357600080fd5b6200060e82620004c8565b9392505050565b600080604083850312156200062957600080fd5b6200063483620004c8565b91506200064460208401620004c8565b90509250929050565b600080604083850312156200066157600080fd5b6200066c83620004c8565b946020939093013593505050565b6020808252825182820181905260009190848201906040850190845b81811015620006ca57835173ffffffffffffffffffffffffffffffffffffffff168352928401929184019160010162000696565b50909695505050505050565b6000815180845260005b81811015620006fe57602081850181015186830182015201620006e0565b5060006020828601015260207fffffffffffffffffffffffffffffffffffffffffffffffffffffffffffffffe0601f83011685010191505092915050565b600073ffffffffffffffffffffffffffffffffffffffff808816835260a060208401526200076e60a0840188620006d6565b9581166040840152938416606083015250911660809091015292915050565b6020815260006200060e6020830184620006d656fe60806040523480156200001157600080fd5b5060405162004ab038038062004ab08339810160408190526200003491620003b4565b60408051808201909152600481526329aaa13d60e11b60208201528490866000600184848484816200006633620002b2565b6001600160a01b0381166200008e576040516306b620db60e21b815260040160405180910390fd5b620000a481620002b260201b62001b921760201c565b50620000fb7feafec4d89fa9619884b60000a4d96624a38f7ac2d8d9a604ecf07c12c77e480c60001b604051806040016040528060048152602001632936598960e21b8152506200030260201b62001c071760201c565b620001357fdeba1e292f8ba88238e10ab3c7f88bd4be4fac56cad5194b6ecceaf653468af160001b856200030260201b62001c071760201c565b6200016f7f2f0a68ab07768e01943a599e73362a0e17a63a72e94dd2e384d2c1d4db93275660001b846200030260201b62001c071760201c565b6040805160208101839052620001c2917fe0261fa95db2eb3b5439bd033cda66d56b96f92f243a8228fd87550ed7bdfdb391016040516020818303038152906040526200030260201b62001c071760201c565b50506002805460ff1916931515939093179092555060079450620001ef9350889250849150620005499050565b50600880546001600160a01b038086166001600160a01b031992831617909255600a8054858416908316179055600b805492841692909116821790556040805163313ce56760e01b8152905163313ce567916004808201926020929091908290030181865afa15801562000267573d6000803e3d6000fd5b505050506040513d601f19601f820116820180604052508101906200028d919062000615565b600a60146101000a81548160ff021916908360ff160217905550505050505062000676565b600080546001600160a01b038381166001600160a01b0319831681178455604051919092169283917f8be0079c531659141344cd1fd0a4f28419497f9722a3daafe3b4186f6b6457e09190a35050565b60008281526001602052604090206200031c828262000549565b50817fece574603820d07bc9b91f2a932baadf4628aabcb8afba49776529c14a6104b2826040516200034f919062000641565b60405180910390a25050565b80516001600160a01b03811681146200037357600080fd5b919050565b634e487b7160e01b600052604160045260246000fd5b60005b83811015620003ab57818101518382015260200162000391565b50506000910152565b600080600080600060a08688031215620003cd57600080fd5b620003d8866200035b565b60208701519095506001600160401b0380821115620003f657600080fd5b818801915088601f8301126200040b57600080fd5b81518181111562000420576200042062000378565b604051601f8201601f19908116603f011681019083821181831017156200044b576200044b62000378565b816040528281528b60208487010111156200046557600080fd5b620004788360208301602088016200038e565b80985050505050506200048e604087016200035b565b92506200049e606087016200035b565b9150620004ae608087016200035b565b90509295509295909350565b600181811c90821680620004cf57607f821691505b602082108103620004f057634e487b7160e01b600052602260045260246000fd5b50919050565b601f8211156200054457600081815260208120601f850160051c810160208610156200051f5750805b601f850160051c820191505b8181101562000540578281556001016200052b565b5050505b505050565b81516001600160401b0381111562000565576200056562000378565b6200057d81620005768454620004ba565b84620004f6565b602080601f831160018114620005b557600084156200059c5750858301515b600019600386901b1c1916600185901b17855562000540565b600085815260208120601f198616915b82811015620005e657888601518255948401946001909101908401620005c5565b5085821015620006055787850151600019600388901b60f8161c191681555b5050505050600190811b01905550565b6000602082840312156200062857600080fd5b815160ff811681146200063a57600080fd5b9392505050565b6020815260008251806020840152620006628160408501602087016200038e565b601f01601f19169190910160400192915050565b61442a80620006866000396000f3fe6080604052600436106102385760003560e01c8063715018a611610138578063b49506fd116100b0578063e9cbd8221161007f578063f354858311610064578063f354858314610802578063fcae448414610817578063fe90cab21461082c576102c5565b8063e9cbd822146107b5578063f2fde38b146107e2576102c5565b8063b49506fd14610728578063b92ae87c14610748578063d72fc29a14610768578063dedff9c614610795576102c5565b80637f23690c11610107578063944964cf116100ec578063944964cf146106df57806397902421146106ff578063b0e21e8a14610712576102c5565b80637f23690c146106a15780638da5cb5b146106b4576102c5565b8063715018a614610636578063760d9bba1461064b578063783816701461066b57806379eaaf611461068b576102c5565b806330d0dc37116101cb5780635745ae281161019a57806366d003ac1161017f57806366d003ac146105995780636963d438146105c657806370a08231146105f3576102c5565b80635745ae281461051c57806365aeaa9514610579576102c5565b806330d0dc3714610476578063313ce567146104965780633b97e856146104bd57806354f6127f146104ef576102c5565b806318160ddd1161020757806318160ddd146103f757806318d4ef14146104165780632bc1da82146104365780632d7667c914610456576102c5565b806301ffc9a71461031f578063039af9eb146103545780630676c1b7146103835780630f574ba7146103d5576102c5565b366102c55734600003610293576040517fe5099ee300000000000000000000000000000000000000000000000000000000815260040161028a9060208082526004908201526000604082015260600190565b60405180910390fd5b6040517f388f5adc00000000000000000000000000000000000000000000000000000000815260040160405180910390fd5b600036606060048210156103095782826040517fe5099ee300000000000000000000000000000000000000000000000000000000815260040161028a929190613384565b610313838361084c565b80519350602001915050f35b34801561032b57600080fd5b5061033f61033a3660046133d1565b6109c3565b60405190151581526020015b60405180910390f35b34801561036057600080fd5b5061037461036f366004613413565b610a28565b60405161034b9392919061349a565b34801561038f57600080fd5b50600a546103b09073ffffffffffffffffffffffffffffffffffffffff1681565b60405173ffffffffffffffffffffffffffffffffffffffff909116815260200161034b565b3480156103e157600080fd5b506103f56103f0366004613413565b610ad6565b005b34801561040357600080fd5b506003545b60405190815260200161034b565b34801561042257600080fd5b506103f5610431366004613601565b610d11565b34801561044257600080fd5b506103f56104513660046136d5565b610ee3565b34801561046257600080fd5b506103f5610471366004613879565b610f99565b34801561048257600080fd5b506103f561049136600461394b565b6110a1565b3480156104a257600080fd5b506104ab611189565b60405160ff909116815260200161034b565b3480156104c957600080fd5b50600a546104ab9074010000000000000000000000000000000000000000900460ff1681565b3480156104fb57600080fd5b5061050f61050a366004613413565b6111a2565b60405161034b91906139ba565b34801561052857600080fd5b5061055c6105373660046139cd565b600e6020526000908152604090208054600182015460029092015460ff909116919083565b60408051931515845260208401929092529082015260600161034b565b34801561058557600080fd5b506104086105943660046139e8565b6111ad565b3480156105a557600080fd5b506008546103b09073ffffffffffffffffffffffffffffffffffffffff1681565b3480156105d257600080fd5b506105e66105e1366004613a1b565b611247565b60405161034b9190613ae5565b3480156105ff57600080fd5b5061040861060e3660046139cd565b73ffffffffffffffffffffffffffffffffffffffff1660009081526004602052604090205490565b34801561064257600080fd5b506103f5611397565b34801561065757600080fd5b506103f5610666366004613af8565b6113ab565b34801561067757600080fd5b506103f5610686366004613b64565b6113e0565b34801561069757600080fd5b50610408600d5481565b6103f56106af366004613bb4565b611504565b3480156106c057600080fd5b5060005473ffffffffffffffffffffffffffffffffffffffff166103b0565b3480156106eb57600080fd5b506103746106fa366004613413565b61154e565b6103f561070d366004613bfb565b611611565b34801561071e57600080fd5b5061040860095481565b34801561073457600080fd5b506103f56107433660046136d5565b61165b565b34801561075457600080fd5b5061033f6107633660046139cd565b61169b565b34801561077457600080fd5b506107886107833660046139cd565b6116f9565b60405161034b9190613ca6565b3480156107a157600080fd5b506105e66107b0366004613cb9565b61172a565b3480156107c157600080fd5b50600b546103b09073ffffffffffffffffffffffffffffffffffffffff1681565b3480156107ee57600080fd5b506103f56107fd3660046139cd565b6117d5565b34801561080e57600080fd5b5061050f61188c565b34801561082357600080fd5b506103f561191a565b34801561083857600080fd5b506103f5610847366004613cee565b611ac4565b6060600061087d6000357fffffffff0000000000000000000000000000000000000000000000000000000016611c5c565b50905073ffffffffffffffffffffffffffffffffffffffff81166108f3576040517fbb370b2b0000000000000000000000000000000000000000000000000000000081527fffffffff0000000000000000000000000000000000000000000000000000000060003516600482015260240161028a565b6000808273ffffffffffffffffffffffffffffffffffffffff1634878733346040516020016109259493929190613d47565b604080517fffffffffffffffffffffffffffffffffffffffffffffffffffffffffffffffe08184030181529082905261095d91613d8a565b60006040518083038185875af1925050503d806000811461099a576040519150601f19603f3d011682016040523d82523d6000602084013e61099f565b606091505b509150915081156109b45792506109bd915050565b80518060208301fd5b92915050565b60007fffffffff0000000000000000000000000000000000000000000000000000000082167fc52d6008000000000000000000000000000000000000000000000000000000001480610a195750610a1982611d1e565b806109bd57506109bd82611d74565b600c60205260009081526040902080548190610a4390613da6565b80601f0160208091040260200160405190810160405280929190818152602001828054610a6f90613da6565b8015610abc5780601f10610a9157610100808354040283529160200191610abc565b820191906000526020600020905b815481529060010190602001808311610a9f57829003601f168201915b50505050600183015460029093015491929160ff16905083565b6000818152600c602052604090206002015460ff16610b21576040517f402b7a2600000000000000000000000000000000000000000000000000000000815260040160405180910390fd5b336000908152600e602052604090205460ff168015610b515750336000908152600e602052604090206001015442105b15610bb8576040517f08c379a000000000000000000000000000000000000000000000000000000000815260206004820152601260248201527f416c726561647920737562736372696265640000000000000000000000000000604482015260640161028a565b610bc23382611dd8565b610bf8576040517f13be252b00000000000000000000000000000000000000000000000000000000815260040160405180910390fd5b6000610c043383611ea4565b905080610c3d576040517f15fed33d00000000000000000000000000000000000000000000000000000000815260040160405180910390fd5b610c59336001806040518060200160405280600081525061232f565b6000610c684262278d00613e22565b6040805160608101825260018082526020808301858152838501898152336000818152600e8552879020955186547fffffffffffffffffffffffffffffffffffffffffffffffffffffffffffffff0016901515178655915193850193909355915160029093019290925582518781529182018490529293507ff94991dcbea6e8ac439cbc93bd9c62a4d39f04e0ad656df9a703f13552c2787f91015b60405180910390a2505050565b60005b8151811015610edf576000828281518110610d3157610d31613e35565b602002602001015190506000600e60008373ffffffffffffffffffffffffffffffffffffffff1673ffffffffffffffffffffffffffffffffffffffff168152602001908152602001600020905042816001015411610e1f57610dd98273ffffffffffffffffffffffffffffffffffffffff166000908152600e6020526040902080547fffffffffffffffffffffffffffffffffffffffffffffffffffffffffffffff00169055565b60405173ffffffffffffffffffffffffffffffffffffffff8316907fae563681ccc696fae58fe830f401bc9c043a43ddb9f7c2830b32c3c70d9966e790600090a2610eca565b6000610e2f838360020154611ea4565b905080610ec857610e868373ffffffffffffffffffffffffffffffffffffffff166000908152600e6020526040902080547fffffffffffffffffffffffffffffffffffffffffffffffffffffffffffffff00169055565b60405173ffffffffffffffffffffffffffffffffffffffff8416907fae563681ccc696fae58fe830f401bc9c043a43ddb9f7c2830b32c3c70d9966e790600090a25b505b50508080610ed790613e64565b915050610d14565b5050565b6000610eef84336111ad565b905080600003610f43576040517fcba6e97700000000000000000000000000000000000000000000000000000000815273ffffffffffffffffffffffffffffffffffffffff8516600482015260240161028a565b6000610f4f8483613e22565b9050610f5f3386836001876123de565b6000338285604051602001610f7693929190613e9c565b6040516020818303038152906040529050610f918682612605565b505050505050565b8451845181141580610fac575083518114155b80610fb8575082518114155b80610fc4575081518114155b15610ffb576040517f263eee8d00000000000000000000000000000000000000000000000000000000815260040160405180910390fd5b60005b818110156110985761109087828151811061101b5761101b613e35565b602002602001015187838151811061103557611035613e35565b602002602001015187848151811061104f5761104f613e35565b602002602001015187858151811061106957611069613e35565b602002602001015187868151811061108357611083613e35565b60200260200101516113ab565b600101610ffe565b50505050505050565b3373ffffffffffffffffffffffffffffffffffffffff8416148015906110dd57503373ffffffffffffffffffffffffffffffffffffffff851614155b1561113a576040517f1a525b3200000000000000000000000000000000000000000000000000000000815233600482015273ffffffffffffffffffffffffffffffffffffffff80851660248301528516604482015260640161028a565b6111488385600085856123de565b81156111835760008360008360405160200161116693929190613eda565b60405160208183030381529060405290506111818582612605565b505b50505050565b60025460009060ff1661119c5750601290565b50600090565b60606109bd82612630565b60008273ffffffffffffffffffffffffffffffffffffffff168273ffffffffffffffffffffffffffffffffffffffff160361120e575073ffffffffffffffffffffffffffffffffffffffff81166000908152600460205260409020546109bd565b5073ffffffffffffffffffffffffffffffffffffffff8082166000908152600660209081526040808320938616835292905220546109bd565b60608167ffffffffffffffff811115611262576112626134c4565b60405190808252806020026020018201604052801561129557816020015b60608152602001906001900390816112805790505b50905060005b8281101561139057600080308686858181106112b9576112b9613e35565b90506020028101906112cb9190613f12565b6040516112d9929190613f7e565b600060405180830381855af49150503d8060008114611314576040519150601f19603f3d011682016040523d82523d6000602084013e611319565b606091505b509150915081611368578051156113335780518082602001fd5b6040517fb774c2840000000000000000000000000000000000000000000000000000000081526004810184905260240161028a565b8084848151811061137b5761137b613e35565b6020908102919091010152505060010161129b565b5092915050565b61139f6126d2565b6113a96000611b92565b565b3373ffffffffffffffffffffffffffffffffffffffff8616146113d3576113d3338685612753565b611181858585858561281d565b3373ffffffffffffffffffffffffffffffffffffffff84161480159061141c57503373ffffffffffffffffffffffffffffffffffffffff851614155b15611479576040517f98ce294500000000000000000000000000000000000000000000000000000000815233600482015273ffffffffffffffffffffffffffffffffffffffff80851660248301528516604482015260640161028a565b600061148585856111ad565b9050828110156114c1576040517f0ef76c3500000000000000000000000000000000000000000000000000000000815260040160405180910390fd5b8281036114d28587836001876123de565b60008582856040516020016114e993929190613e9c565b60405160208183030381529060405290506110988782612605565b61150c6126d2565b3415611544576040517ff36ba73700000000000000000000000000000000000000000000000000000000815260040160405180910390fd5b610edf82826128f3565b6000818152600c602052604081206001810154600282015482546060949384939092839260ff90911690839061158390613da6565b80601f01602080910402602001604051908101604052809291908181526020018280546115af90613da6565b80156115fc5780601f106115d1576101008083540402835291602001916115fc565b820191906000526020600020905b8154815290600101906020018083116115df57829003601f168201915b50505050509250935093509350509193909250565b6116196126d2565b3415611651576040517ff36ba73700000000000000000000000000000000000000000000000000000000815260040160405180910390fd5b610edf82826129fe565b6116693384846001856123de565b600033838360405160200161168093929190613e9c565b60405160208183030381529060405290506111838482612605565b73ffffffffffffffffffffffffffffffffffffffff81166000908152600e602052604081205460ff1680156109bd57505073ffffffffffffffffffffffffffffffffffffffff166000908152600e6020526040902060010154421090565b73ffffffffffffffffffffffffffffffffffffffff811660009081526005602052604090206060906109bd90612ac9565b6060815167ffffffffffffffff811115611746576117466134c4565b60405190808252806020026020018201604052801561177957816020015b60608152602001906001900390816117645790505b50905060005b82518110156117cf576117aa83828151811061179d5761179d613e35565b6020026020010151612630565b8282815181106117bc576117bc613e35565b602090810291909101015260010161177f565b50919050565b6117dd6126d2565b73ffffffffffffffffffffffffffffffffffffffff8116611880576040517f08c379a000000000000000000000000000000000000000000000000000000000815260206004820152602660248201527f4f776e61626c653a206e6577206f776e657220697320746865207a65726f206160448201527f6464726573730000000000000000000000000000000000000000000000000000606482015260840161028a565b61188981611b92565b50565b6007805461189990613da6565b80601f01602080910402602001604051908101604052809291908181526020018280546118c590613da6565b80156119125780601f106118e757610100808354040283529160200191611912565b820191906000526020600020905b8154815290600101906020018083116118f557829003601f168201915b505050505081565b336000908152600e602052604090205460ff16611993576040517f08c379a000000000000000000000000000000000000000000000000000000000815260206004820152600e60248201527f4e6f742073756273637269626564000000000000000000000000000000000000604482015260640161028a565b600b546040517f65aeaa9500000000000000000000000000000000000000000000000000000000815230600482015233602482015260009173ffffffffffffffffffffffffffffffffffffffff16906365aeaa9590604401602060405180830381865afa158015611a08573d6000803e3d6000fd5b505050506040513d601f19601f82011682018060405250810190611a2c9190613f8e565b90508015611a66576040517fe953bbb800000000000000000000000000000000000000000000000000000000815260040160405180910390fd5b336000818152600e602052604080822080547fffffffffffffffffffffffffffffffffffffffffffffffffffffffffffffff00169055517fae563681ccc696fae58fe830f401bc9c043a43ddb9f7c2830b32c3c70d9966e79190a250565b611acc6126d2565b600d805460009182611add83613e64565b909155506040805160608101825285815260208082018690526001828401526000848152600c90915291909120815192935090918190611b1d9082613fed565b5060208201516001820155604091820151600290910180547fffffffffffffffffffffffffffffffffffffffffffffffffffffffffffffff00169115159190911790555181907f0cd7898308a5fad9421ce03e32f30d9f2a6814fbae5caee3f6de4d482a5aed9990610d049086908690614107565b6000805473ffffffffffffffffffffffffffffffffffffffff8381167fffffffffffffffffffffffff0000000000000000000000000000000000000000831681178455604051919092169283917f8be0079c531659141344cd1fd0a4f28419497f9722a3daafe3b4186f6b6457e09190a35050565b6000828152600160205260409020611c1f8282613fed565b50817fece574603820d07bc9b91f2a932baadf4628aabcb8afba49776529c14a6104b282604051611c5091906139ba565b60405180910390a25050565b60008080611cac7fcee78b4094da86011096000000000000000000000000000000000000000000007fffffffff000000000000000000000000000000000000000000000000000000008616612ad6565b90506000611cb982612630565b90508051601414158015611ccd5750805115155b15611d0657806040517f42bfe79f00000000000000000000000000000000000000000000000000000000815260040161028a91906139ba565b611d0f81614129565b60601c95600195509350505050565b60007fffffffff0000000000000000000000000000000000000000000000000000000082167fa918fa6b0000000000000000000000000000000000000000000000000000000014806109bd57506109bd82612b5a565b600080611da07f01ffc9a700000000000000000000000000000000000000000000000000000000611c5c565b50905073ffffffffffffffffffffffffffffffffffffffff8116611dc75750600092915050565b611dd18184612bf1565b9392505050565b600b546040517f65aeaa9500000000000000000000000000000000000000000000000000000000815230600482015273ffffffffffffffffffffffffffffffffffffffff848116602483015260009283929116906365aeaa9590604401602060405180830381865afa158015611e52573d6000803e3d6000fd5b505050506040513d601f19601f82011682018060405250810190611e769190613f8e565b6000848152600c602081905260408220600101549293509091611e9891614179565b90911015949350505050565b73ffffffffffffffffffffffffffffffffffffffff82166000908152600e60205260408120805460ff168015611edd5750428160010154115b15611f14576040517f5fd8a13200000000000000000000000000000000000000000000000000000000815260040160405180910390fd5b6000838152600c60205260408120600181015490916064611f36836002614179565b611f409190614190565b90506000611f4e82846141cb565b60408051600280825260608201835292935060009290916020830190803683370190505090508881600081518110611f8857611f88613e35565b602002602001019073ffffffffffffffffffffffffffffffffffffffff16908173ffffffffffffffffffffffffffffffffffffffff16815250508881600181518110611fd657611fd6613e35565b73ffffffffffffffffffffffffffffffffffffffff9290921660209283029190910182015260408051600280825260608201835260009391929091830190803683375050600854825192935073ffffffffffffffffffffffffffffffffffffffff169183915060009061204b5761204b613e35565b73ffffffffffffffffffffffffffffffffffffffff9283166020918202929092010152600a5482519116908290600190811061208957612089613e35565b73ffffffffffffffffffffffffffffffffffffffff92909216602092830291909101820152604080516002808252606082018352600093919290918301908036833701905050905083816000815181106120e5576120e5613e35565b602002602001018181525050848160018151811061210557612105613e35565b60209081029190910101526040805160028082526060820190925260009181602001602082028036833701905050905060018160008151811061214a5761214a613e35565b60200260200101901515908115158152505060018160018151811061217157612171613e35565b9115156020928302919091019091015260408051600280825260608201909252600091816020015b606081526020019060019003908161219957905050905060405180602001604052806000815250816000815181106121d3576121d3613e35565b6020026020010181905250604051806020016040528060008152508160018151811061220157612201613e35565b6020908102919091010152600b546040517f2d7667c900000000000000000000000000000000000000000000000000000000815273ffffffffffffffffffffffffffffffffffffffff90911690632d7667c99061226a90889088908890889088906004016141de565b600060405180830381600087803b15801561228457600080fd5b505af1925050508015612295575060015b6122cb576040517f15fed33d00000000000000000000000000000000000000000000000000000000815260040160405180910390fd5b604080518781526020810189905273ffffffffffffffffffffffffffffffffffffffff8f16917f07d56d06d59e708b4db4f68fd102036f1f8441c3f1ce450e350c21fed38d0287910160405180910390a260019a50505050505050505050506109bd565b73ffffffffffffffffffffffffffffffffffffffff841661237c576040517fd2d5ec3000000000000000000000000000000000000000000000000000000000815260040160405180910390fd5b61238a600085858585612cc0565b612398600085858585612d6a565b6123a6600085858585611181565b60003360008686856040516020016123c2959493929190614294565b6040516020818303038152906040529050611181858483612f21565b73ffffffffffffffffffffffffffffffffffffffff841661242b576040517f6355e76600000000000000000000000000000000000000000000000000000000815260040160405180910390fd5b8473ffffffffffffffffffffffffffffffffffffffff168473ffffffffffffffffffffffffffffffffffffffff1603612490576040517fdab7504700000000000000000000000000000000000000000000000000000000815260040160405180910390fd5b73ffffffffffffffffffffffffffffffffffffffff808616600090815260066020908152604080832093881683529290522083905582156125665773ffffffffffffffffffffffffffffffffffffffff851660009081526005602052604090206124fa90856130df565b50828573ffffffffffffffffffffffffffffffffffffffff168573ffffffffffffffffffffffffffffffffffffffff167ff772a43bfdf4729b196e3fb54a818b91a2ca6c49d10b2e16278752f9f515c25d8460405161255991906139ba565b60405180910390a4611181565b73ffffffffffffffffffffffffffffffffffffffff851660009081526005602052604090206125959085613101565b508115158573ffffffffffffffffffffffffffffffffffffffff168573ffffffffffffffffffffffffffffffffffffffff167f0ebf5762d8855cbe012d2ca42fb33a81175e17c8a8751f8859931ba453bd4167846040516125f691906139ba565b60405180910390a45050505050565b610edf827f386072cc5a58e61263b434c722725f21031cd06e7c552cfaa06db5de8a320dbc83613123565b600081815260016020526040902080546060919061264d90613da6565b80601f016020809104026020016040519081016040528092919081815260200182805461267990613da6565b80156126c65780601f1061269b576101008083540402835291602001916126c6565b820191906000526020600020905b8154815290600101906020018083116126a957829003601f168201915b50505050509050919050565b60005473ffffffffffffffffffffffffffffffffffffffff1633146113a9576040517f08c379a000000000000000000000000000000000000000000000000000000000815260206004820181905260248201527f4f776e61626c653a2063616c6c6572206973206e6f7420746865206f776e6572604482015260640161028a565b73ffffffffffffffffffffffffffffffffffffffff80831660009081526006602090815260408083209387168352929052205480158061279257508082115b156127f7576040517ff3a6b69100000000000000000000000000000000000000000000000000000000815273ffffffffffffffffffffffffffffffffffffffff808516600483015260248201839052851660448201526064810183905260840161028a565b611183838561280685856141cb565b6000604051806020016040528060008152506123de565b73ffffffffffffffffffffffffffffffffffffffff85161580612854575073ffffffffffffffffffffffffffffffffffffffff8416155b1561288b576040517fd2d5ec3000000000000000000000000000000000000000000000000000000000815260040160405180910390fd5b6128988585858585612cc0565b6128a58585858585612d6a565b6128b28585858585611181565b600033868686856040516020016128cd959493929190614294565b60405160208183030381529060405290506128e886826131bc565b610f91858483612f21565b7f2145e1d6d074577dc71ef54c3807742b41b053a9352ae6b491331509acb9750f820161294c576040517f85c169bd00000000000000000000000000000000000000000000000000000000815260040160405180910390fd5b7fd0f59754f88971fe6bc5a6618cc9d5f1e859c58d16b22d1c7b2d3e2b246cd8aa82016129a5576040517f76755b3800000000000000000000000000000000000000000000000000000000815260040160405180910390fd5b7f1fd9e056a24d14c4abc642fcc325992a946906d0dbc57dd70278aaf12842024d8201611c07576040517f4ef6d7fb00000000000000000000000000000000000000000000000000000000815260040160405180910390fd5b8051825114612a39576040517f3bcc897900000000000000000000000000000000000000000000000000000000815260040160405180910390fd5b8151600003612a74576040517f97da5f9500000000000000000000000000000000000000000000000000000000815260040160405180910390fd5b60005b8251811015612ac457612abc838281518110612a9557612a95613e35565b6020026020010151838381518110612aaf57612aaf613e35565b60200260200101516128f3565b600101612a77565b505050565b60606000611dd1836131e7565b604080517fffffffffffffffffffff00000000000000000000000000000000000000000000841660208201526000602a82018190527fffffffffffffffffffffffffffffffffffffffff0000000000000000000000008416602c83015291829101604051602081830303815290604052905080612b52906142db565b949350505050565b60007fffffffff0000000000000000000000000000000000000000000000000000000082167f629aa6940000000000000000000000000000000000000000000000000000000014806109bd57507f01ffc9a7000000000000000000000000000000000000000000000000000000007fffffffff000000000000000000000000000000000000000000000000000000008316146109bd565b604080517fffffffff000000000000000000000000000000000000000000000000000000008316602480830191909152825180830390910181526044909101909152602080820180517bffffffffffffffffffffffffffffffffffffffffffffffffffffffff167f01ffc9a700000000000000000000000000000000000000000000000000000000178152825160009392849283928392918391908a617530fa92503d91506000519050828015612ca9575060208210155b8015612cb55750600081115b979650505050505050565b73ffffffffffffffffffffffffffffffffffffffff85161580612cf7575073ffffffffffffffffffffffffffffffffffffffff8416155b612d5d576040517f08c379a000000000000000000000000000000000000000000000000000000000815260206004820152601960248201527f5472616e736665727320617265206e6f7420616c6c6f77656400000000000000604482015260640161028a565b6111818585858585611181565b73ffffffffffffffffffffffffffffffffffffffff8516612da2578260036000828254612d979190613e22565b90915550612e549050565b73ffffffffffffffffffffffffffffffffffffffff851660009081526004602052604090205483811015612e28576040517f08d479490000000000000000000000000000000000000000000000000000000081526004810182905273ffffffffffffffffffffffffffffffffffffffff871660248201526044810185905260640161028a565b73ffffffffffffffffffffffffffffffffffffffff861660009081526004602052604090209084900390555b73ffffffffffffffffffffffffffffffffffffffff8416612e7d57600380548490039055612ea9565b73ffffffffffffffffffffffffffffffffffffffff841660009081526004602052604090208054840190555b8373ffffffffffffffffffffffffffffffffffffffff168573ffffffffffffffffffffffffffffffffffffffff163373ffffffffffffffffffffffffffffffffffffffff167f3997e418d2cef0b3b0e907b1e39605c3f7d32dbd061e82ea5b4a770d46a160a68686866040516125f69392919061431d565b612f4b837f6bb56a1400000000000000000000000000000000000000000000000000000000612bf1565b15613029576040517f6bb56a1400000000000000000000000000000000000000000000000000000000815273ffffffffffffffffffffffffffffffffffffffff841690636bb56a1490612fc4907f20804611b3e2ea21c480dc465142210acf4a2485947541770ec1fb87dee4a55c90859060040161433e565b6000604051808303816000875af1158015612fe3573d6000803e3d6000fd5b505050506040513d6000823e601f3d9081017fffffffffffffffffffffffffffffffffffffffffffffffffffffffffffffffe01682016040526111839190810190614357565b81612ac45773ffffffffffffffffffffffffffffffffffffffff83163b15613095576040517fa608fbb600000000000000000000000000000000000000000000000000000000815273ffffffffffffffffffffffffffffffffffffffff8416600482015260240161028a565b6040517f26c247f400000000000000000000000000000000000000000000000000000000815273ffffffffffffffffffffffffffffffffffffffff8416600482015260240161028a565b6000611dd18373ffffffffffffffffffffffffffffffffffffffff8416613242565b6000611dd18373ffffffffffffffffffffffffffffffffffffffff8416613291565b61316373ffffffffffffffffffffffffffffffffffffffff84167f6bb56a1400000000000000000000000000000000000000000000000000000000612bf1565b15612ac4576040517f6bb56a1400000000000000000000000000000000000000000000000000000000815273ffffffffffffffffffffffffffffffffffffffff841690636bb56a1490612fc4908590859060040161433e565b610edf827f429ac7a06903dbc9c13dfcb3c9d11df8194581fa047c96d7a4171fc7402958ea83613123565b6060816000018054806020026020016040519081016040528092919081815260200182805480156126c657602002820191906000526020600020905b8154815260200190600101908083116132235750505050509050919050565b6000818152600183016020526040812054613289575081546001818101845560008481526020808220909301849055845484825282860190935260409020919091556109bd565b5060006109bd565b6000818152600183016020526040812054801561337a5760006132b56001836141cb565b85549091506000906132c9906001906141cb565b905081811461332e5760008660000182815481106132e9576132e9613e35565b906000526020600020015490508087600001848154811061330c5761330c613e35565b6000918252602080832090910192909255918252600188019052604090208390555b855486908061333f5761333f6143c5565b6001900381819060005260206000200160009055905585600101600086815260200190815260200160002060009055600193505050506109bd565b60009150506109bd565b60208152816020820152818360408301376000818301604090810191909152601f9092017fffffffffffffffffffffffffffffffffffffffffffffffffffffffffffffffe0160101919050565b6000602082840312156133e357600080fd5b81357fffffffff0000000000000000000000000000000000000000000000000000000081168114611dd157600080fd5b60006020828403121561342557600080fd5b5035919050565b60005b8381101561344757818101518382015260200161342f565b50506000910152565b6000815180845261346881602086016020860161342c565b601f017fffffffffffffffffffffffffffffffffffffffffffffffffffffffffffffffe0169290920160200192915050565b6060815260006134ad6060830186613450565b602083019490945250901515604090910152919050565b7f4e487b7100000000000000000000000000000000000000000000000000000000600052604160045260246000fd5b604051601f82017fffffffffffffffffffffffffffffffffffffffffffffffffffffffffffffffe016810167ffffffffffffffff8111828210171561353a5761353a6134c4565b604052919050565b600067ffffffffffffffff82111561355c5761355c6134c4565b5060051b60200190565b803573ffffffffffffffffffffffffffffffffffffffff8116811461358a57600080fd5b919050565b600082601f8301126135a057600080fd5b813560206135b56135b083613542565b6134f3565b82815260059290921b840181019181810190868411156135d457600080fd5b8286015b848110156135f6576135e981613566565b83529183019183016135d8565b509695505050505050565b60006020828403121561361357600080fd5b813567ffffffffffffffff81111561362a57600080fd5b612b528482850161358f565b600067ffffffffffffffff821115613650576136506134c4565b50601f017fffffffffffffffffffffffffffffffffffffffffffffffffffffffffffffffe01660200190565b600061368a6135b084613636565b905082815283838301111561369e57600080fd5b828260208301376000602084830101529392505050565b600082601f8301126136c657600080fd5b611dd18383356020850161367c565b6000806000606084860312156136ea57600080fd5b6136f384613566565b925060208401359150604084013567ffffffffffffffff81111561371657600080fd5b613722868287016136b5565b9150509250925092565b600082601f83011261373d57600080fd5b8135602061374d6135b083613542565b82815260059290921b8401810191818101908684111561376c57600080fd5b8286015b848110156135f65780358352918301918301613770565b8035801515811461358a57600080fd5b600082601f8301126137a857600080fd5b813560206137b86135b083613542565b82815260059290921b840181019181810190868411156137d757600080fd5b8286015b848110156135f6576137ec81613787565b83529183019183016137db565b600082601f83011261380a57600080fd5b8135602061381a6135b083613542565b82815260059290921b8401810191818101908684111561383957600080fd5b8286015b848110156135f657803567ffffffffffffffff81111561385d5760008081fd5b61386b8986838b01016136b5565b84525091830191830161383d565b600080600080600060a0868803121561389157600080fd5b853567ffffffffffffffff808211156138a957600080fd5b6138b589838a0161358f565b965060208801359150808211156138cb57600080fd5b6138d789838a0161358f565b955060408801359150808211156138ed57600080fd5b6138f989838a0161372c565b9450606088013591508082111561390f57600080fd5b61391b89838a01613797565b9350608088013591508082111561393157600080fd5b5061393e888289016137f9565b9150509295509295909350565b6000806000806080858703121561396157600080fd5b61396a85613566565b935061397860208601613566565b925061398660408601613787565b9150606085013567ffffffffffffffff8111156139a257600080fd5b6139ae878288016136b5565b91505092959194509250565b602081526000611dd16020830184613450565b6000602082840312156139df57600080fd5b611dd182613566565b600080604083850312156139fb57600080fd5b613a0483613566565b9150613a1260208401613566565b90509250929050565b60008060208385031215613a2e57600080fd5b823567ffffffffffffffff80821115613a4657600080fd5b818501915085601f830112613a5a57600080fd5b813581811115613a6957600080fd5b8660208260051b8501011115613a7e57600080fd5b60209290920196919550909350505050565b600081518084526020808501808196508360051b8101915082860160005b85811015613ad8578284038952613ac6848351613450565b98850198935090840190600101613aae565b5091979650505050505050565b602081526000611dd16020830184613a90565b600080600080600060a08688031215613b1057600080fd5b613b1986613566565b9450613b2760208701613566565b935060408601359250613b3c60608701613787565b9150608086013567ffffffffffffffff811115613b5857600080fd5b61393e888289016136b5565b60008060008060808587031215613b7a57600080fd5b613b8385613566565b9350613b9160208601613566565b925060408501359150606085013567ffffffffffffffff8111156139a257600080fd5b60008060408385031215613bc757600080fd5b82359150602083013567ffffffffffffffff811115613be557600080fd5b613bf1858286016136b5565b9150509250929050565b60008060408385031215613c0e57600080fd5b823567ffffffffffffffff80821115613c2657600080fd5b613c328683870161372c565b93506020850135915080821115613c4857600080fd5b50613bf1858286016137f9565b600081518084526020808501945080840160005b83811015613c9b57815173ffffffffffffffffffffffffffffffffffffffff1687529582019590820190600101613c69565b509495945050505050565b602081526000611dd16020830184613c55565b600060208284031215613ccb57600080fd5b813567ffffffffffffffff811115613ce257600080fd5b612b528482850161372c565b60008060408385031215613d0157600080fd5b823567ffffffffffffffff811115613d1857600080fd5b8301601f81018513613d2957600080fd5b613d388582356020840161367c565b95602094909401359450505050565b8385823760609290921b7fffffffffffffffffffffffffffffffffffffffff00000000000000000000000016919092019081526014810191909152603401919050565b60008251613d9c81846020870161342c565b9190910192915050565b600181811c90821680613dba57607f821691505b6020821081036117cf577f4e487b7100000000000000000000000000000000000000000000000000000000600052602260045260246000fd5b7f4e487b7100000000000000000000000000000000000000000000000000000000600052601160045260246000fd5b808201808211156109bd576109bd613df3565b7f4e487b7100000000000000000000000000000000000000000000000000000000600052603260045260246000fd5b60007fffffffffffffffffffffffffffffffffffffffffffffffffffffffffffffffff8203613e9557613e95613df3565b5060010190565b73ffffffffffffffffffffffffffffffffffffffff84168152826020820152606060408201526000613ed16060830184613450565b95945050505050565b73ffffffffffffffffffffffffffffffffffffffff8416815260ff83166020820152606060408201526000613ed16060830184613450565b60008083357fffffffffffffffffffffffffffffffffffffffffffffffffffffffffffffffe1843603018112613f4757600080fd5b83018035915067ffffffffffffffff821115613f6257600080fd5b602001915036819003821315613f7757600080fd5b9250929050565b8183823760009101908152919050565b600060208284031215613fa057600080fd5b5051919050565b601f821115612ac457600081815260208120601f850160051c81016020861015613fce5750805b601f850160051c820191505b81811015610f9157828155600101613fda565b815167ffffffffffffffff811115614007576140076134c4565b61401b816140158454613da6565b84613fa7565b602080601f83116001811461406e57600084156140385750858301515b7fffffffffffffffffffffffffffffffffffffffffffffffffffffffffffffffff600386901b1c1916600185901b178555610f91565b6000858152602081207fffffffffffffffffffffffffffffffffffffffffffffffffffffffffffffffe08616915b828110156140bb5788860151825594840194600190910190840161409c565b50858210156140f757878501517fffffffffffffffffffffffffffffffffffffffffffffffffffffffffffffffff600388901b60f8161c191681555b5050505050600190811b01905550565b60408152600061411a6040830185613450565b90508260208301529392505050565b6000815160208301517fffffffffffffffffffffffffffffffffffffffff000000000000000000000000808216935060148310156141715780818460140360031b1b83161693505b505050919050565b80820281158282048414176109bd576109bd613df3565b6000826141c6577f4e487b7100000000000000000000000000000000000000000000000000000000600052601260045260246000fd5b500490565b818103818111156109bd576109bd613df3565b60a0815260006141f160a0830188613c55565b6020838203818501526142048289613c55565b8481036040860152875180825282890193509082019060005b818110156142395784518352938301939183019160010161421d565b50508481036060860152865180825290820192508187019060005b81811015614272578251151585529383019391830191600101614254565b5050505082810360808401526142888185613a90565b98975050505050505050565b600073ffffffffffffffffffffffffffffffffffffffff8088168352808716602084015280861660408401525083606083015260a06080830152612cb560a0830184613450565b805160208083015191908110156117cf577fffffffffffffffffffffffffffffffffffffffffffffffffffffffffffffffff60209190910360031b1b16919050565b8381528215156020820152606060408201526000613ed16060830184613450565b828152604060208201526000612b526040830184613450565b60006020828403121561436957600080fd5b815167ffffffffffffffff81111561438057600080fd5b8201601f8101841361439157600080fd5b805161439f6135b082613636565b8181528560208385010111156143b457600080fd5b613ed182602083016020860161342c565b7f4e487b7100000000000000000000000000000000000000000000000000000000600052603160045260246000fdfea26469706673582212207127e85242e5f876882531fcf10795beb292eff2c5d3d312fbe8f932abc0746f64736f6c63430008110033a26469706673582212206a7cef8cc1cfa95547b4e49c5238a41d9833660338e23fcd92b2895630b2430264736f6c63430008110033",
  "linkReferences": {},
  "deployedLinkReferences": {}
}